:020000040800F2
:10000000200B002031020008190900083107000800
:1000100039080008E9040008831B000800000000FC
:1000200000000000000000000000000011100008A7
:10003000ED04000800000000870E0008B51100085C
:100040004B0200084B0200084B0200084B0200085C
:100050004B0200084B0200084B0200084B0200084C
:100060004B0200084B020008F10400084B02000894
:100070004B0200084B0200084B0200084B0200082C
:100080004B0200084B0200084B0200084B0200081C
:100090004B0200084B0200084B0200084B0200080C
:1000A0004B0200084B0200084B0200084B020008FC
:1000B0004B0200084B0200084B0200084B020008EC
:1000C0004B0200084B0200084B0200084B020008DC
:1000D0004B020008311800084B0200084B020008D0
:1000E0004B0200084B0200084B0200084B020008BC
:1000F0004B0200084B0200084B0200084B020008AC
:100100004B0200084B0200084B0200084B0200089B
:100110004B0200084B0200084B0200084B0200088B
:100120004B0200084B0200084B0200084B0200087B
:100130004B0200084B0200084B0200084B0200086B
:100140004B0200084B0200084B0200084B0200085B
:100150004B0200084B0200084B0200084B0200084B
:100160004B0200084B0200084B0200084B0200083B
:100170004B0200084B0200084B0200084B0200082B
:100180004B0200084B02000800F002F800F041F8B2
:100190000AA090E8000C82448344AAF10107DA45E2
:1001A00001D100F036F8AFF2090EBAE80F0013F0F3
:1001B000010F18BFFB1A43F001031847C83B0000AA
:1001C000E83B0000103A24BF78C878C1FAD852073B
:1001D00024BF30C830C144BF04680C6070470000C1
:1001E0000023002400250026103A28BF78C1FBD840
:1001F000520728BF30C148BF0B607047642900F028
:100200007980002070471FB501F0AEFE1FBD10B50C
:1002100010BD00F037F91146FFF7F5FF01F0A2FD20
:1002200000F055F903B4FFF7F2FF03BC01F00AFD3B
:100230000948804709480047FEE7FEE7FEE7FEE77A
:10024000FEE7FEE7FEE7FEE7FEE7FEE704480549B6
:10025000054A064B70470000B911000889010008E3
:1002600020050020200B0020200700202007002070
:10027000704700000FB4044910B503AA029800F0BB
:10028000D3F810BC5DF814FB240000202DE9F041E8
:100290000E460446002020622046E168884730B3BD
:1002A000252805D0D4E901219047206A401CF2E7B7
:1002B000E168204600278847050018D0A5F14100D5
:1002C000192802D820354FF40067324629462046C7
:1002D0002760FFF793FF40B1012804D0F61D26F0F8
:1002E00007060836D8E7361DD6E72846DAE7206A3B
:1002F000BDE8F0812DE9F04106460024106875291B
:10030000314616A510D0AFF30080002802DA404233
:1003100013A507E031688A0701D512A502E0490755
:1003200004D511A5012401E0AFF3008000210A22C9
:1003300006F1240709E0B0FBF2FCB0FBF2F302FB8C
:100340001C00303078541846491C0028F3D123464D
:100350002A463046BDE8F04100F00CB8000000002D
:100360002D0000002B0000002000000070477047A7
:10037000704770472DE9F0470D469946924604466E
:1003800000F124080168880604D5E06921F0100115
:10039000216000E00120A84201DD471B00E00027AA
:1003A000A1697A1902EB0900081AA0612078C00639
:1003B00002D42046AFF30080002608E0D4E90121F2
:1003C0001AF806009047206A401C761C20624E45B1
:1003D000F4DB2078C0060AD52046AFF3008006E0A3
:1003E000D4E9012130209047206A401C2062381E49
:1003F000A7F10107F4DC07E0D4E9012118F80500B2
:100400009047206A401C2062281EA5F10105F3DCFC
:100410002046AFF300802078000602D50220BDE818
:10042000F0870120FBE70000074B70B50D467B44C9
:1004300000F011F80446284600F020F810B14FF003
:10044000FF3070BD204670BDD718000001694A1CFE
:1004500002610878704700B58FB0CDE90131002105
:10046000059105497944CDE9031011466846FFF727
:100470000DFF0FB000BD0000E5FFFFFF007B00F0A7
:1004800080007047754600F02BF8AE4605006946BF
:10049000534620F00700854618B020B5FFF7D6FE7A
:1004A000BDE820404FF000064FF000074FF0000875
:1004B0004FF0000B21F00701AC46ACE8C009ACE8F6
:1004C000C009ACE8C009ACE8C0098D46704710B55A
:1004D0000446AFF300802046BDE81040FFF7A2BEFF
:1004E00000487047BC04002000BFFEE770470000D2
:1004F00010B50A2001F0C6FB15480068401C1449DD
:10050000086014480068C0431349C1F8A4021048A9
:100510000068012804D0022807D0032812D109E07E
:1005200040F2DC500D4908600DE04FF4FA600B49D1
:10053000086008E040F6C41008490860002004493B
:10054000086000E000BF00BF102000F009F810BDF7
:1005500004000020A48242420080424200000020A9
:100560000149086070470000143C01400021234904
:100570008279002A3AD00A46126803689A430B46E9
:100580001A600A1D126803689A430B1D1A600279EB
:1005900011440A6803681A430A60184A083212684C
:1005A00003689A43154B08331A601A1D12680368D2
:1005B0009A43124B0C331A604279102A0ED11A1F3B
:1005C000126803681A430D4B08331A601A1D12682B
:1005D00003681A43094B0C331A600DE0074942794E
:1005E00011440A6803681A430A6005E0027911445D
:1005F0000A6803689A430A6070470000003C0140A3
:100600000EB500F0E1F80121880300F06DFC042133
:10061000084600F0FFFC1020009000208DF8040038
:100620000C208DF8050001208DF806006846FFF7C4
:100630009DFF0A208DF8080000208DF80900042095
:100640008DF80A0001208DF80B0002A800F066F971
:100650000EBDF0B50A4600210023002400BF3DE096
:10066000012505FA01F3156805EA03049C4234D11B
:1006700005684F000326BE40B543056015794E005E
:10068000B5400668354305601579012D02D015790E
:10069000022D16D185684F000326BE40B543856004
:1006A00055794E00B540866835438560456801261A
:1006B0008E40B5434560456896798E40B6B2354365
:1006C0004560C5684F000326BE40B543C560D57977
:1006D0004E00B540C6683543C560491C1029BFD3DC
:1006E000F0BDF0B5002300244D07ED0E02FA05F32E
:1006F000CE1000F1200555F826504E07F70E0F26B4
:10070000BE40B543CF1000F1200646F82750CE106A
:1007100000F1200555F8265045EA0304CE1000F1FB
:10072000200545F82640F0BD41837047018370479E
:1007300000BFFEE710B501210A48FFF7F7FF0221CD
:100740000848FFF7F3FF00F037F801210548FFF7ED
:10075000EBFF00F031F802210248FFF7E5FF00F05F
:100760002BF810BD0014024010B501210648FFF718
:10077000DBFF02210448FFF7D9FF00F01DF801213B
:100780000148FFF7D3FF10BD0014024010B501214E
:100790000848FFF7CBFF00F00FF802210548FFF7EC
:1007A000C5FF00F009F802210248FFF7BDFF00F085
:1007B00003F810BD001402400A2000BF011EA0F182
:1007C0000102D0B2FAD170471CB50121102000F00F
:1007D0005BFB1020009000208DF8040003208DF8B2
:1007E000050001208DF8070069460248FFF731FF38
:1007F0001CBD0000001002401CB50121202000F0AB
:1008000043FB4FF4C060009001208DF804000020ED
:100810008DF8060003208DF8050001208DF80700F3
:1008200069460448FFF715FF4FF4C0610148FFF720
:100830007DFF1CBD0014024000BFFEE738B9012156
:100840000C4A116000210C4AC2F8941211E00128F0
:1008500007D10021074A11600121074AC2F894120A
:1008600007E0022805D10021024A1160024AC2F8BD
:1008700094127047900241420000404238B9012171
:100880000C4A116000210C4AC2F89C1211E00128A8
:1008900007D10021074A11600121074AC2F89C12C2
:1008A00007E0022805D10021024A1160024AC2F87D
:1008B0009C12704790024042000040421CB501214A
:1008C000052000F0E1FAB020009001208DF804002E
:1008D00000208DF8060003208DF8050001208DF81A
:1008E000070069460A48FFF7B4FE10200090012077
:1008F0008DF8040000208DF8060003208DF8050017
:1009000001208DF8070069460248FFF7A2FE1CBDD2
:1009100000000240000802407047000070B500214E
:1009200000230F22C4781CB3174C246804F4E0643D
:10093000C4F5E064C4F30721C1F10404E3B20A4141
:1009400044789C40E1B28478144021430C07210E86
:100950000E4C05786155047804F01F050124AC4065
:1009600005786D11AD0005F1E025C5F8004109E0FD
:10097000047804F01F050124AC40054D067876117B
:1009800045F8264070BD00000CED00E000E400E0FA
:1009900080E100E002490143024A11607047000013
:1009A0000000FA050CED00E070B500240CE0002515
:1009B00006E00020074901EBC5010855681CC5B2D7
:1009C000802DF6DB601CC4B2082CF0DB00F002F9CD
:1009D00070BD00003C000020F0B514460B46CF1758
:1009E00001EB5777C7F3C702CF1701EB5777FF101B
:1009F000A1EBC707FEB20123B340DDB24CB1134BEC
:100A000003EBC0039B5C2B43104F07EBC007BB54A9
:100A10001AE00E4B03EBC0039B5CDB430B4F07EB71
:100A2000C007BB54094B03EBC0039B5C2B43074F30
:100A300007EBC007BB54054B03EBC0039B5CDB43D8
:100A4000024F07EBC007BB54F0BD00003C00002084
:100A50001CB50121202000F017FA0320009001208E
:100A60008DF804008DF8060003208DF805000120A4
:100A70008DF8070069464E48FFF7EBFD1020009007
:100A800000208DF8060069464948FFF7E2FD4FF463
:100A90008050009001208DF804008DF8060003209E
:100AA0008DF8050001208DF8070069464148FFF7E1
:100AB000D0FD10214048FFF737FEC82001F0E2F8D2
:100AC00010213D48FFF732FE0021AE2000F0BFF9B3
:100AD0000021084600F0BBF90021102000F0B7F912
:100AE0000021402000F0B3F90021812000F0AFF98F
:100AF0000021CF2000F0ABF90021A12000F0A7F9E0
:100B00000021C82000F0A3F90021A62000F09FF9E1
:100B10000021A82000F09BF900213F2000F097F968
:100B20000021D32000F093F90021084600F08FF94E
:100B30000021D52000F08BF90021802000F087F9FA
:100B40000021D92000F083F90021F12000F07FF985
:100B50000021DA2000F07BF90021122000F077F963
:100B60000021DB2000F073F90021402000F06FF934
:100B70000021202000F06BF90021022000F067F92D
:100B800000218D2000F063F90021142000F05FF9AE
:100B90000021A42000F05BF90021A62000F057F905
:100BA000FFF702FF0021AF2000F051F91CBD00004B
:100BB0000014024000180240000C024010B502462A
:100BC000012000E050430B1EA1F10104E1B2F9D174
:100BD00010BD000070B500242BE004F1B001C8B2D4
:100BE000002100F034F90021084600F030F900211E
:100BF000102000F02CF9FFF79DFD782000F02AFA74
:100C0000FFF7C4FD402000F025FAFFF7BFFD0025E7
:100C100009E0094901EBC501085D00F01BFAFFF787
:100C2000B5FD681CC5B2802DF3DBFFF79DFD601C90
:100C3000C4B2082CD1DB70BD3C0000202DE9FE4F72
:100C40000746884692461C460197CDF80080082C3E
:100C500002D14FF006091FE02046E31704EB53735F
:100C6000DB1021464FEAE47C04EB5C7C4FEAEC0CA1
:100C7000A4EBCC0CBCF1000F02D04FF0010C01E052
:100C80004FF0000C6344224604EBD27C4FEA6C0C1C
:100C900003FB0CF303F0FF09AAF12000C6B2002504
:100CA0005EE0082C07D106EB46002F4901EB40001F
:100CB00010F805B01DE00C2C07D106EB46002B49BF
:100CC00001EB800010F805B013E0102C05D1284886
:100CD00000EB061010F805B00BE0182C07D106EB5E
:100CE000C600244901EB800010F805B001E0BDE822
:100CF000FE8F002002901CE00BF0010028B141465D
:100D000038460C9AFFF768FE09E00C9808B90120F4
:100D100000E00020024641463846FFF75DFE4FEAFC
:100D20006B0B08F1010000F0FF080298401CC0B2F4
:100D3000029002980828DFDB781CC7B2082C0BD081
:100D400004EBD4714A100199791A8A4204D1019FA7
:100D500000980830C0B20090DDF80080681CC5B271
:100D60004D459EDB00BFC2E7721F00089A210008B4
:100D70000E260008FE2B00082DE9FF4F82B0064624
:100D800091461F46DDE90F4A4FF0000B082C01D1B8
:100D90004FF0020B002530E0781B401EC1B20A2044
:100DA000FFF70CFFB9FBF0F00A21B0FBF1F201FBF9
:100DB0001208B8F1000F0ED104EBD4710BEB6101F6
:100DC00001FB0561C8B223463022CDE900A4039996
:100DD000FFF734FF0FE004EBD4710BEB610101FB73
:100DE0000561C8B208F13001CAB22346CDE900A4BA
:100DF0000399FFF723FF681CC5B2BD42CCDB06B0E8
:100E0000BDE8F08F2DE9F84106460F4614461D4611
:100E1000DDF81C8013E0CDF8008022782B4639469F
:100E20003046FFF70BFF082D02D1B01DC6B205E01A
:100E3000284605EBD07106EB6101CEB2641C207828
:100E4000202802DB20787E28E5DDBDE8F88170B53A
:100E500005460C46FFF76EFC782000F0FBF8FFF724
:100E600095FC1CB1402000F0F5F802E0002000F0F5
:100E7000F1F8FFF78BFC284600F0ECF8FFF786FC52
:100E8000FFF772FC70BD704729B1064A1268024331
:100E9000044B1A6004E0034A12688243014B1A6053
:100EA000704700003038024029B1064A12680243F8
:100EB000044B1A6004E0034A12688243014B1A6033
:100EC000704700004038024029B1064A12680243C8
:100ED000044B1A6004E0034A12688243014B1A6013
:100EE000704700002038024029B1064A12680243C8
:100EF000044B1A6004E0034A12688243014B1A60F3
:100F0000704700004438024029B1064A1268024383
:100F1000044B1A6004E0034A12688243014B1A60D2
:100F20007047000024380240F0B500210022002460
:100F3000022500260223324F3F6807F00C0121B141
:100F4000042905D0082937D105E02E4F076036E087
:100F50002D4F076033E02A4F3F1F3F68C7F380568D
:100F6000274F3F1F3F6807F03F036EB1264FB7FB87
:100F7000F3F7DFF88CC0ACF1040CDCF800C0CCF364
:100F8000881C07FB0CF40CE01E4FB7FBF3F7DFF8EF
:100F900070C0ACF1040CDCF800C0CCF3881C07FB7B
:100FA0000CF4174F3F1F3F68C7F301477F1C7D00BC
:100FB000B4FBF5F7076002E0124F076000BF00BF07
:100FC0000F4F3F6807F0F0010909104F7A5C07687E
:100FD000D74047600A4F3F6807F4E051890A0B4F3A
:100FE0007A5C4768D7408760054F3F6807F46041E7
:100FF000490B064F7A5C4768D740C760F0BD0000D8
:10100000083802400024F40000127A002A00002070
:101010007047000030B500228B071C0F0F2303FA26
:1010200004F20B4B8C1053F824309343084C8D1072
:1010300044F8253023468C1053F824308C07240FB5
:1010400000FA04F42343024C8D1044F8253030BDDF
:101050000838014070B5044600251BE004F080000C
:1010600020B101210D48FFF761FB03E001210B488E
:10107000FFF75AFBFFF7A0FB02210848FFF756FBDA
:10108000FFF79AFB02210548FFF74EFB6006040EAE
:10109000681CC5B2082DE1DB70BD000000140240E1
:1010A0000CB50020019000903448006840F4803076
:1010B0003249086000BF3148006800F400300090F9
:1010C0000198401C0190009818B90198B0F5A04F04
:1010D000F1D12A48006800F4003010B101200090DE
:1010E00001E0002000900098012846D123484030BC
:1010F000006840F080502149403108602048006875
:1011000040F440401E4908601C48083000681B49F4
:10111000083108600846006840F40040086008464E
:10112000006840F4A05008601648091F0860081FB6
:10113000006840F08070091F086000BF0F48006819
:1011400000F000700028F9D040F205700E490860E8
:101150000A480830006820F0030008490831086098
:101160000846006840F00200086000BF03480830ED
:10117000006800F00C000828F8D10CBD00380240CF
:101180000070004008544007003C0240042808D189
:101190004FF0E021096941F004014FF0E0221161B4
:1011A00007E04FF0E021096921F004014FF0E0224F
:1011B000116170477047000010B51548006840F491
:1011C0007000134908601348006840F0010011499D
:1011D000086000200F49083108600E4800680E4979
:1011E00008400C4908600D48091D0860081F006888
:1011F00020F48020091F0860002006490C31086097
:10120000FFF74EFF4FF0006001498039086010BDC4
:1012100088ED00E000380240FFFFF6FE10300024A9
:10122000F0B50C46154600210022068C4FF6FE77DD
:101230003E400684018B028C4FF60C7631407E1CBA
:1012400006EA03162E4331434FF6F576324044F05A
:101250000106324301830284F0BDF0B50C46154609
:10126000002100220026078C4FF6EF7C07EA0C07CE
:101270000784018B028C4FF6FF7707EA041640F6CD
:10128000FF4739404FF6FF7707EA033739434FF6F8
:10129000FF7707EA052739434FF65F773A4046F074
:1012A00010073A4301830284F0BDF0B50C461546A1
:1012B000002100220026078C4FF6FF6C07EA0C077E
:1012C0000784818B028C4FF6FF7707EA04264FF6DE
:1012D0000C7739404FF6FF7707EA03172F4339435E
:1012E0004FF2FF573A4046F480773A4381830284B5
:1012F000F0BDF0B50C461546002100220026078CF3
:101300004EF6FF7C07EA0C070784818B028C4FF6B0
:10131000FF7707EA043640F6FF4739404FF6FF777C
:1013200007EA052739434FF6FF7707EA03373943C2
:1013300045F6FF773A4046F480573A43818302846A
:10134000F0BD000030B58BB004460D4601214804C5
:10135000FFF7CAFD01212020FFF796FD0322062199
:101360001D48FFF7BEF94020099002208DF82800A3
:1013700003208DF8290000208DF82A0001208DF827
:101380002B0009A91448FFF764F9ADF818500020A4
:10139000ADF81A000794ADF8200006A90F4800F038
:1013A00005FA6020ADF804000120ADF80600022027
:1013B000ADF8100001A9094800F080F9082107489C
:1013C00000F0BAF90121054800F0FEF801210348B8
:1013D00000F006F90BB030BD00140240004401409B
:1013E00030B58BB005460C4601218804FFF77CFD23
:1013F00001212020FFF748FD032207211D48FFF7A8
:1014000070F98020099002208DF8280003208DF8C3
:10141000290000208DF82A0001208DF82B0009A951
:101420001448FFF716F90795ADF818400020ADF8FD
:101430001A00ADF8200006A90F4800F0B7F96020A7
:10144000ADF804000220ADF810000120ADF8060050
:1014500001A9094800F032F90821074800F06CF9A9
:101460000121054800F0B0F80121034800F0B8F868
:101470000BB030BD001402400048014000B589B0F7
:1014800001210220FFF710FD01210420FFF7FCFCE1
:10149000C020079003208DF8210000208DF8220045
:1014A00002208DF8230007A91B48FFF7D2F802227B
:1014B00006211948FFF715F9022207211648FFF700
:1014C00010F9002005904FF6FF70ADF810000020D5
:1014D000ADF81800ADF8120004A9104800F066F944
:1014E00000231A4603210D4800F086F80A20ADF8C3
:1014F0000C0001A9094800F0A0F801221146074894
:1015000000F0D2F80021054800F021F9012103483C
:1015100000F066F809B000BD000802400004004079
:1015200000B589B001210420FFF7BEFC012108208D
:10153000FFF7AAFC4FF44050079003208DF82100DC
:1015400000208DF8220002208DF8230007A91C48F6
:10155000FFF77FF802220C211948FFF7C2F8022298
:101560000D211748FFF7BDF8002005904FF6FF70DA
:10157000ADF810000020ADF81800ADF8120004A975
:10158000104800F013F900231A4603210D4800F01B
:1015900033F80A20ADF80C0001A90A4800F04DF814
:1015A00001221146074800F07FF80021054800F0AD
:1015B000CEF80121034800F013F809B000BD000087
:1015C000000C02400008004021B1028842F0800275
:1015D000028004E002884FF67F731A400280704751
:1015E00021B1028842F00102028004E002884FF635
:1015F000FE731A4002807047F0B50C4615461E4631
:101600000021002200230189028B038C4FF6F8771A
:10161000394021434FF6FC473A4040F201173A4324
:101620004FF6DD773B404FF6FF7707EA06172F436B
:101630003B43018102830384F0BD70B505460C462F
:10164000208850B92389A28861882846FFF7E8FDE1
:10165000E188284600F07DF825E0208804280AD19A
:101660002389A28861882846FFF7F7FDE18828468C
:1016700000F078F817E0208808280AD12389A2888A
:1016800061882846FFF711FEE188284600F077F8C8
:1016900009E02389A28861882846FFF72AFEE188AD
:1016A000284600F075F870BD1AB183890B43838119
:1016B00002E083898B4383817047000070B500246A
:1016C00000220023058C4FF6FE7635400584028CFF
:1016D0008388048B4FF68F752C40B51E2C400D88E7
:1016E0002C43751E2A408D892A434D882A43104D6C
:1016F000A84202D00F4DA84213D14FF6F7752A40E9
:10170000CD892A434FF6FB752A408D882A434FF630
:10171000FF652B404FF6FF552B400D8A2B434D8A1A
:101720002B43838004838D684563028470BD000071
:1017300000000140000401400A460021018B4FF6E1
:10174000F773194011430183704741637047416249
:101750007047028B4FF6F3731A400283028B0A43E1
:1017600002837047028B4FF2FF331A400283028BD1
:101770004FF6FF7303EA01231A4302837047828BFB
:101780004FF6F3731A408283828B0A438283704739
:10179000828B4FF2FF331A408283828B4FF6FF73A6
:1017A00003EA01231A438283704700000022028863
:1017B000184B98420ED0184B98420BD0B0F1804F86
:1017C00008D0164B984205D0154B984202D0154BC5
:1017D000984204D14FF68F731A404B881A43124B2C
:1017E000984207D0114B984204D04FF6FF431A405D
:1017F0000B891A4302804B68C3620B880385054B33
:10180000984202D0044B984201D18B7A038601237F
:101810008382704700000140000401400004004042
:1018200000080040000C0040001000400014004080
:1018300070B540F225512D4800F0E4F8002849D059
:101840002A4800F099F9C4B22948008860B92948AB
:10185000274909884454007855283BD124480088FA
:10186000401C2349088035E02148008801280FD119
:10187000AA2C09D11F481E49098844541C480088D5
:10188000401C1B49088025E000201949088021E000
:1018900017480088022804D11CB900201449088088
:1018A00018E01348008801280DDD1148008805283C
:1018B00009DA10480E49098844540D480088401C34
:1018C0000B49088006E00A480088052802DB002052
:1018D00007490880002505E00648405D064948554F
:1018E000681CC5B2052DF7DB70BD0000001001407B
:1018F0001A000020100000201500002021B182896C
:1019000042F40052828104E082894DF6FF731A404E
:101910008281704710B504463248844208D10121C3
:101920001020FFF7F1FA00211020FFF7EDFA57E041
:101930002D48844209D101214804FFF7C5FA00214E
:101940004FF40030FFF7C0FA4AE02848844209D13A
:1019500001218804FFF7B8FA00214FF48020FFF737
:10196000B3FA3DE02248844209D10121C804FFF7BF
:10197000ABFA00214FF40020FFF7A6FA30E01D4833
:10198000844209D101210805FFF79EFA00214FF496
:101990008010FFF799FA23E01748844208D101210B
:1019A0002020FFF7B1FA00212020FFF7ADFA17E061
:1019B0001248844209D101218807FFF785FA0021E6
:1019C0004FF08040FFF780FA0AE00D48844207D1CB
:1019D00001214005FFF778FA00216005FFF774FA4E
:1019E00010BD0000001001400044004000480040CD
:1019F000004C0040005000400014014000780040BE
:101A0000007C004070B50246002400230025002021
:101A100040F66A16B14200D100BFC1F3421501F091
:101A20001F03012606FA03F3012D02D196893340E4
:101A300006E0022D02D1168A334001E0968A334037
:101A40000C12012606FA04F41688344013B10CB1C6
:101A5000012000E0002070BDF0B503460024002600
:101A60000025002040F66A17B94200D100BF184691
:101A7000C1F3421401F01F06012707FA06F5012CF5
:101A800001D10C3004E0022C01D1103000E0143000
:101A90001AB107682F43076002E00768AF43076089
:101AA000F0BD00002DE9FF4705460E460024A14683
:101AB00000BFA046B08900B100BF2C8A24F4405476
:101AC000F08804432C82AC8941F20C608443B088D6
:101AD00031890843718908430443AC81AC8A24F4FA
:101AE0004074B0890443AC826846FFF71DFA204871
:101AF000854202D01F48854202D1DDF80C9001E0FA
:101B0000DDF80890A88900F4004040B109EBC90055
:101B100000EB091031684900B0FBF1F707E009EB71
:101B2000C90000EB091031688900B0FBF1F76420AF
:101B3000B7FBF0F004012009642101FB1078A889AB
:101B400000F4004040B1322000EBC800B0FBF1F0DF
:101B500000F00700044308E0322000EB0810642185
:101B6000B0FBF1F000F00F0004432C81BDE8FF87CB
:101B7000001001400014014001468888C0F30800AD
:101B8000704700BFFEE7000010B588B00446012191
:101B90001020FFF7A9F901210220FFF775F90722AC
:101BA00006212548FEF79DFD072211462248FEF733
:101BB00098FD2248FFF7AEFEC020069002208DF867
:101BC0001C008DF81D0000208DF81E0001208DF8EE
:101BD0001F0006A91848FEF73CFD02940020ADF84E
:101BE0000C00ADF80E00ADF81000ADF814000C209C
:101BF000ADF8120025208DF8040000208DF80500B6
:101C000001208DF806008DF8070006A90C48FEF7A4
:101C100020FD02A90948FFF745FF01A8FEF77EFE57
:101C2000012240F225510548FFF716FF0121034824
:101C3000FFF764FE08B010BD000402400010014030
:101C40000000024000BF704710B504466FF004006A
:101C5000FFF79CFAE11704EB5171C1F3C701074A82
:101C600011701046007800EB4001C1EBC0104FF638
:101C7000FF7101EAC0000249088010BD2000002069
:101C80002200002070B504464FF4077094FBF0F07A
:101C9000C6B24FF4077094FBF0F100FB114085B21F
:101CA00005E04FF4077000F009F8701EC6B2002E70
:101CB000F7D115B1284600F001F870BD0146114A70
:101CC00012884A434FF0E0235A6100229A611A4673
:101CD000126942F001021A6100BF4FF0E022106960
:101CE00000F001021AB100F48032002AF5D04FF062
:101CF000E022126922F001024FF0E0231A61002273
:101D00009A6170472200002000BF054A128802F045
:101D10004002002AF9D0C2B2014B9A8070470000FD
:101D200000100140F0B5014600260122002500BF49
:101D30000846CF1701EB17773F11A1EB07140023DB
:101D400001E012015B1CAB42FBDB62431644012243
:101D50006D1CCF1701EB17773F11391EE8D13046C4
:101D6000F0BD00001CB54FF4A060FEF713FE4FF469
:101D7000E130FFF709FFFFF781FBFFF7D1FBFEF72B
:101D80009DFDA820FFF760FFFEF736FDFEF760FE21
:101D9000FEF71AFDFEF734FC532140F2F310FFF773
:101DA000D1FA532140F2F310FFF71AFB0120102360
:101DB0003FA2002100901A20FFF724F801201023F1
:101DC0003DA2182100900A20FFF71CF801201023E3
:101DD0003BA22C2100900A20FFF714F800203A497A
:101DE00008604FF47A703949086060E0FEF7F2FE4F
:101DF0000A20FFF747FF00F071F84FF4967134485E
:101E0000FFF7A3FC4FF496713248FFF79EFC0020C9
:101E100010210423CDE900102C48182102682D2040
:101E2000FEF7AAFF002010210423CDE900102A4864
:101E30002C2102682D20FEF79FFF0D20FFF722FFC7
:101E40002548006828B90220FEF7F8FC0220FEF7BA
:101E500015FD1E48016820480068C830814205DD34
:101E60000020FEF7EBFC0020FEF708FD1A48006892
:101E7000C8301649096888420CDB17480068C83822
:101E800012490968884205DC0220FEF7D7FC0220CF
:101E9000FEF7F4FC10480068C8380C49096888420D
:101EA00005DD0120FEF7CAFC0120FEF7E7FC9DE7F7
:101EB00046532D54415354006F6C643A00000000A7
:101EC0006E65773A00000000A482424200000020C4
:101ED00000440140004801401C00002070B5154836
:101EE0000078552824D1002505E01248415D12A054
:101EF000FEF7C0F96D1C052DF7DB11A0FEF7BAF94E
:101F00000C498878FFF70EFF04460A49C878FFF7A6
:101F100009FF0646324621460AA0FEF7ABF906EB5A
:101F200004200C490860084601680BA0FEF7A2F9DE
:101F300070BD000015000020202564200A0000006C
:101F40000D0A000068683D2564204C4C3D25642046
:101F50000A0000001C0000206E65776465707468DC
:101F60003D25640A000000004FF04070E1EE100AC9
:101F700070470000000000000000002F000000007B
:101F80000700070000147F147F1400242A7F2A1200
:101F900000626408132300364955225000000503EF
:101FA000000000001C224100000041221C0000141F
:101FB000083E08140008083E0808000000A0600061
:101FC00000080808080800006060000000201008F1
:101FD0000402003E5149453E0000427F400000425D
:101FE00061514946002141454B31001814127F10C0
:101FF000002745454539003C4A49493000017109EF
:10200000050300364949493600064949291E0000A2
:102010003636000000005636000000081422410049
:102020000014141414140000412214080002015179
:10203000090600324959513E007C1211127C007F82
:1020400049494936003E41414122007F4141221C1D
:10205000007F49494941007F09090901003E414982
:10206000497A007F0808087F0000417F4100002076
:1020700040413F01007F08142241007F4040404022
:10208000007F020C027F007F0408107F003E414168
:10209000413E007F09090906003E4151215E007F53
:1020A000091929460046494949310001017F0101CA
:1020B000003F4040403F001F2040201F003F40386D
:1020C000403F0063140814630007087008070061AC
:1020D0005149454300007F41410000552A552A558A
:1020E000000041417F000004020102040040404022
:1020F0004040000001020400002054545478007F46
:102100004844443800384444442000384444487F1C
:1021100000385454541800087E0901020018A4A481
:10212000A47C007F080404780000447D4000004047
:1021300080847D00007F102844000000417F400023
:10214000007C04180478007C0804047800384444B7
:10215000443800FC242424180018242418FC007C93
:102160000804040800485454542000043F4440200C
:10217000003C4040207C001C2040201C003C4030A3
:10218000403C004428102844001CA0A0A07C00442F
:1021900064544C441414141414140000000000007F
:1021A0000000000000000000FC0000000000020031
:1021B0000000000C020C020000000000000090D0A3
:1021C000BCD0BC900003000300001824FE448C0027
:1021D0000302070201001824D8B04C80000300015C
:1021E0000201C038E438E0000102020102020806E0
:1021F00000000000000000000000000000F80402E1
:10220000000000010204000204F8000000040201C2
:1022100000009060F86090000000010000002020A5
:10222000FC20200000000100000000000000000071
:1022300008060000000020202020200000000000F0
:10224000000000000000000000020000000000800C
:10225000601C0200040300000000F8040404F800FD
:102260000102020201000008FC000000000203025B
:10227000000018844424180003020202020008042B
:102280002424D80001020202010040B088FC800032
:102290000000000302003C242424C40001020202C6
:1022A0000100F824242CC0000102020201000C04E9
:1022B000E41C0400000003000000D8242424D800FB
:1022C00001020202010038444444F8000003020203
:1022D00001000000100000000000020000000000EB
:1022E00020000000000006000000002050880402CA
:1022F000000000000102909090909000000000000B
:1023000000000002048850200002010000001804B0
:10231000C4241800000002000000F804E494F8004F
:1023200001020202020000E09CF0800002030000B3
:10233000030204FC2424D800020302020100F80472
:1023400004040C0001020202010004FC0404F80071
:1023500002030202010004FC24740C0002030202C6
:10236000030004FC24740C00020302000000F008C7
:102370000444CC4000010202010004FC2020FC04C3
:102380000203000003020404FC040400020203022E
:102390000200000404FC040406040403000004FC1E
:1023A00024D00C0402030200030204FC0400000019
:1023B000020302020203FC3CC03CFC0003000300D9
:1023C000030004FC30C4FC04020302000300F80410
:1023D0000404F80001020202010004FC2424180095
:1023E000020302000000F8848404F80001020207DE
:1023F000050004FC24649800020302000302182470
:1024000024448C000302020201000C04FC040C00B2
:1024100000020302000004FC0000FC0400010202B0
:102420000100047C80E01C040000030000001CE0AC
:102430003CE01C00000300030000049C609C0400BE
:10244000020300030200041CE01C0400000203025B
:1024500000000C84641C040002030202030000005C
:10246000FE020200000007040400000E30C000005D
:10247000000000010200000202FE00000004040748
:102480000000000402040000000000000000000042
:10249000000000000808080808080000020000000A
:1024A0000000000000000040A0A0C00000010202E7
:1024B000030204FC2020C00000030202010000C04F
:1024C0002020600000010202020000C02024FC0065
:1024D00000010202030200C0A0A0C000000102022D
:1024E00002000020F824240400020302020000403D
:1024F000A0A0602000070A0A0A0404FC2020C000F3
:102500000203020003020020E400000000020302B4
:102510000000000020E4000008080807000004FC98
:1025200080E020200203020003020404FC000000FB
:10253000020203020200E020E020C00003000300CA
:10254000030020E02020C00002030200030200C0BC
:102550002020C00000010202010020E02020C00075
:10256000080F0A02010000C02020E0000001020A5A
:102570000F0820E04020200002030200000000605D
:10258000A0A020000002020203000020F8200000AA
:1025900000000102020020E00020E0000001020231
:1025A000030220E020806020000003010000608022
:1025B000E0806000000300030000206080602000D5
:1025C00002030003020020E02080602008080701C9
:1025D00000000020A06020000002030202000000B2
:1025E00020DE0200000000070400000000FF0000E1
:1025F0000000000F00000002DE20000000040700C1
:1026000000000201020404020000000000000000BB
:1026100000000000000000000000000000000000BA
:1026200000F800000000000000333000000000103F
:102630000C06100C0600000000000000000040C066
:102640007840C0784000043F04043F040400007058
:1026500088FC08300000001820FF211E0000F00850
:10266000F000E018000000211C031E211E0000F0F5
:102670000888700000001E2123241927211010163D
:102680000E0000000000000000000000000000003C
:1026900000E01804020000000007182040000002BB
:1026A0000418E0000000004020180700000040402F
:1026B00080F0804040000202010F01020200000091
:1026C00000F0000000000101011F010101000000F5
:1026D00000000000000080B070000000000000005A
:1026E00000000000000000010101010101010000E3
:1026F000000000000000003030000000000000007A
:10270000000080601804006018060100000000E06E
:1027100010080810E000000F102020100F0000101B
:1027200010F8000000000020203F20200000007072
:10273000080808887000003028242221300000306A
:102740000888884830000018202020110E00000062
:10275000C02010F8000000070424243F240000F8E3
:102760000888880808000019212020110E0000E0C8
:10277000108888180000000F112020110E0000386A
:102780000808C83808000000003F00000000007082
:10279000880808887000001C222121221C0000E00B
:1027A00010080810E0000000312222110F00000084
:1027B00000C0C00000000000003030000000000039
:1027C00000800000000000008060000000000000A9
:1027D0008040201008000001020408102000404042
:1027E0004040404040000404040404040400000885
:1027F000102040800000002010080402010000703A
:1028000048080808F0000000003036010000C03021
:10281000C828E810E0000718272423140B00000044
:10282000C038E0000000203C23020227382008F8CE
:10283000888888700000203F202020110E00C030C2
:10284000080808083800071820202010080008F899
:1028500008080810E000203F202020100F0008F892
:102860008888E8081000203F20202320180008F85E
:102870008888E8081000203F200003000000C030D6
:1028800008080838000007182020221E020008F857
:1028900008000008F808203F210101213F2000081E
:1028A00008F8080800000020203F20200000000059
:1028B0000808F8080800C08080807F00000008F841
:1028C00088C028180800203F20012638200008F87A
:1028D000080000000000203F20202020300008F8E1
:1028E000F800F8F80800203F003F003F200008F8FB
:1028F00030C00008F808203F200007183F00E01013
:1029000008080810E0000F10202020100F0008F821
:1029100008080808F000203F210101010000E01034
:1029200008080810E0000F18242438504F0008F859
:10293000888888887000203F2000030C30200070B9
:102940008808080838000038202121221C001808B7
:1029500008F8080818000000203F2000000008F8D0
:1029600008000008F808001F202020201F00087819
:10297000880000C83808000007380E010000F80879
:1029800000F80008F800033C0700073C03000818A3
:1029900068808068180820302C03032C3020083809
:1029A000C800C83808000000203F200000001008C0
:1029B0000808C83808002038262120201800000008
:1029C00000FE020202000000007F40404000000CB8
:1029D00030C000000000000000010638C000000206
:1029E0000202FE000000004040407F0000000000A6
:1029F00004020202040000000000000000000000C9
:102A000000000000000080808080808080800002C4
:102A100002040000000000000000000000000000B0
:102A20008080808000000019242222223F2008F8A4
:102A3000008080000000003F112020110E000000E7
:102A4000008080800000000E112020201100000076
:102A500000808088F800000E112020103F20000028
:102A6000808080800000001F22222222130000802C
:102A700080F0888888180020203F20200000000077
:102A8000808080808000006B94949493600008F8AC
:102A9000008080800000203F210000203F20008037
:102AA0009898000000000020203F20200000000037
:102AB00000809898000000C08080807F000008F8A7
:102AC000000080808000203F24022D30200000087C
:102AD00008F8000000000020203F20200000808037
:102AE000808080808000203F20003F20003F808049
:102AF000008080800000203F210000203F20000057
:102B0000808080800000001F202020201F00808007
:102B100000808000000080FFA12020110E00000036
:102B2000008080808000000E112020A0FF80808027
:102B300080008080800020203F21200001000000D4
:102B400080808080800000332424242419000080A9
:102B500080E0808000000000001F202000008080B6
:102B6000000000808000001F202020103F20808077
:102B700080000080808000010E3008060100808007
:102B80000080008080800F300C030C300F0000802C
:102B90008000808080000020312E0E312000808057
:102BA00080000080808080818E7018060100008087
:102BB0008080808080000021302C222130000000A5
:102BC0000000807C020200000000003F4040000046
:102BD0000000FF00000000000000FF0000000002F5
:102BE000027C800000000040403F00000000000622
:102BF00001010202040400000000000000000000C7
:102C000000000000000000000000000000000000C4
:102C100000000000000000000000000000000000B4
:102C200000000000000000F0F0F0000000000000D4
:102C3000000000017F010000000000000000001CF7
:102C40001C1C0000000000008060301C8C60301CE8
:102C50000C00000000000000000000000000000068
:102C600000000000000000000000000000E0000084
:102C7000000000E000000086E69F86868686E69FCC
:102C8000860000011F01010101011F010100000078
:102C900080C06020F820E0C00000000003070C188E
:102CA000FF70E18100000000070F10107F100F0778
:102CB00000008060206080000000E02000000F30F5
:102CC00020309F70DC371030C0000000100E030071
:102CD0000718101807000000C02020E0C000000006
:102CE000000080E01F38E88703C43C040000070FA1
:102CF0001810100B070D1010080000808C4C3800C5
:102D000000000000000000000000000000000000C3
:102D100000000000000000000000000000000000B3
:102D20000000000080E0300804000000000000FE09
:102D3000FF0100000000000000000000030F182049
:102D4000400000040830E0800000000000000000A7
:102D5000000001FFFE0000000000004020180F03EB
:102D6000000000000000000000000000C0000000A3
:102D70000000004266663C18FF183C666642000090
:102D80000000000003000000000000000000000040
:102D9000800000000000001010101010FF10101034
:102DA0001010000000000000030000000000000000
:102DB0000000000000000000000000000000000013
:102DC00000000000000000808C4C38000000000073
:102DD00000000000000000000000000000000010E3
:102DE0001010101010101010100000000000000053
:102DF00000000000000000000000000000000000D3
:102E000000000000000000000000000000000000C2
:102E10001C1C1C000000000000000000000000005E
:102E20000000E0380C000000000080701C0300006F
:102E300000000060380E01000000000000000000EB
:102E400080C060202060C080000000FEFF01000004
:102E5000000001FFFE000001070E181010180E07F9
:102E600001000000808080C0E00000000000000041
:102E7000000000FFFF000000000000001010101F05
:102E80001F10101000000080402020202060C08013
:102E9000000000030300804020381F070000001CD2
:102EA0001A1918181818181F00000080C0202020B8
:102EB00060C080000000000303001010182FE7809E
:102EC000000000070F10101010180F07000000007E
:102ED00000000000C0E0F000000000C0B088868163
:102EE00080FFFF808000000000000010101F1F10F6
:102EF00010000000E0606060606060600000000042
:102F00003F1008080818F0E0000000070B10101030
:102F1000101C0F030000000080C040202020E0C0F3
:102F2000000000FCFF211008080818F0E000000174
:102F3000070C18101010080F03000000C0E06060BC
:102F4000606060E06000000003000000E01807001F
:102F5000000000000000001F1F00000000000080B3
:102F6000C0602020202060C080000087EF2C18184F
:102F7000303068CF830000070F0810101010180FB2
:102F800007000000C0C020202020C0800000001FDB
:102F90003F604040402010FFFE0000000C1C10105D
:102FA00010080F03000000000000000000000000F7
:102FB000000000000000000E0E0E000000000000E7
:102FC0000000001C1C1C00000000000000000000AD
:102FD00000000000000000000000000C0C000000D9
:102FE0000000000000000058380000000000000051
:102FF00000000000008040201000000010284482E3
:1030000001000000000000000000000001020408B0
:10301000100000000000000000000000000000841C
:1030200084848484848484848400000000000000FC
:1030300000000000000000001020408000000000A0
:103040000000000000000000018244281000000081
:103050001008040201000000000000C02020101031
:10306000101030E0C0000003030000F010080C074F
:103070000300000000001C1C1C00000000000000F9
:1030800000C0406020202040C00000FCFF01F00E86
:1030900003C1FE03807F0001070E08111110110902
:1030A00004020000000080E0E000000000000000DA
:1030B000807C4340477FF880000010181F100000FC
:1030C0000000131F1C1020E0E02020202060C080A2
:1030D000000000FFFF10101010182FE78000101FD5
:1030E0001F1010101010180F0700000080C04020A3
:1030F00020202060E00000FCFF0100000000000034
:1031000001000001070E181010100804030020E051
:10311000E02020202040C080000000FFFF000000D1
:10312000000001FFFE00101F1F10101018080E07EE
:10313000010020E0E020202020202060800000FF0F
:10314000FF101010107C00000000101F1F10101046
:1031500010101018060020E0E020202020206060E1
:10316000800000FFFF101010107C00000100101FF5
:103170001F100000000000000000000080C0602060
:10318000202040E0000000FCFF0100004040C0C1E2
:1031900040400001070E181010100F0F000020E033
:1031A000E0200000000020E0E02000FFFF101010F1
:1031B000101010FFFF00101F1F1000000000101F54
:1031C0001F100000202020E0E02020200000000050
:1031D000000000FFFF000000000000001010101FA2
:1031E0001F101010000000000000202020E0E02050
:1031F000202000000000000000FFFF000000006031
:10320000E0808080C07F3F00000020E0E0200000E0
:1032100020A06020200000FFFF30187CE3C00000E9
:103220000000101F1F10000001131F1C181020E0C9
:10323000E020000000000000000000FFFF00000090
:10324000000000000000101F1F10101010101018B8
:10325000060020E0E0E000000000E0E0E02000FFE9
:10326000013FFEC0E01E01FFFF00101F1000031F02
:103270000300101F1F1020E0E0C00000000000202D
:10328000E02000FF0003071C78E08000FF00101F13
:10329000100000000000030F1F00000080C060202D
:1032A0002060C080000000FEFF010000000000FF61
:1032B000FE000001070E181010180C07010020E096
:1032C000E0202020202060C0800000FFFF20202080
:1032D0002020301F0F00101F1F10000000000000F2
:1032E0000000000080C060202060C080000000FE60
:1032F000FF010000000000FFFE000001070E111199
:10330000133C7C67210020E0E0202020202060C0CA
:10331000800000FFFF101030F0D0080F0700101FD2
:103320001F10000000030F1C10100080C060202040
:1033300020204040E00000070F0C1818303060E0FB
:103340008100001F0C0810101010180F070080607B
:10335000202020E0E020202060800100000000FF0D
:10336000FF000000000100000000101F1F100000FF
:10337000000020E0E020000000000020E02000FF2E
:10338000FF00000000000000FF0000070F181010F1
:103390001010100807002060E0E02000000020E08E
:1033A00060200000077FF88000807C0300000000A0
:1033B0000000071F1C070000000020E0E02000E0E4
:1033C000E0200020E0200007FFF8E01FFFFCE01FE6
:1033D00000000000031F0300011F03000000002085
:1033E00060E0A0000020E0602000000000038F7C6F
:1033F000F8C6010000000010181E130001171F1866
:1034000010002060E0E02000000020E060200000CC
:1034100001073EF8E0180700000000000010101F30
:103420001F101000000000806020202020A0E0E09D
:10343000200000000000C0F03E0F0300000000105C
:103440001C1F17101010101806000000000000FCD0
:103450000404040404000000000000FF0000000059
:10346000000000000000007F40404040400000009D
:1034700010E0000000000000000000000000031C3D
:1034800060800000000000000000000000030C70DD
:10349000800000000404040404FC0000000000009C
:1034A0000000000000FF000000000000404040401D
:1034B000407F0000000000000010080C040C081001
:1034C00000000000000000000000000000000000FC
:1034D00000000000000000000000000000000000EC
:1034E00000000000000000000000000000000000DC
:1034F00000008080808080808080808080800000CC
:1035000000040408080000000000000000000000A3
:1035100000000000000000000000000000000000AB
:10352000000000000000000000000000000000009B
:1035300098D844642424FCF80000000F1F181010D1
:1035400010081F1F10180020E0F00000000000000D
:1035500000000000FFFF180804040CF8F000000051
:103560001F0F18101010180F0300000000000000BB
:1035700000000000000000E0F8180404043C3800DB
:10358000000000030F0C10101010080600000000CF
:10359000000000000020E0F0000000E0F81C04043F
:1035A0000408FFFF000000030F18101010081F0F81
:1035B0000800000000000000000000000000000003
:1035C000E0F8484444444C7870000000030F0C18A5
:1035D0001010100804000000000080C0602020E0EF
:1035E000C00000040404FFFF040404040000000001
:1035F00010101F1F1010100000000000000000003D
:10360000000000000000000070F88C04048CF874C6
:10361000040C007076CF8D8D8D89C87870000020E5
:10362000E0F000000000000000000000FFFF0804C0
:103630000404FCF8000000101F1F100000101F1FE2
:1036400010000000000000606000000000000000AA
:10365000040404FCFC000000000000001010101F17
:103660001F1010100000000000000000006060004B
:10367000000000000000040404FCFC000000000046
:10368000C0C08080C07F3F0000000020E0F000004C
:103690000000000000000000FFFF80C0F41C0404D4
:1036A000000000101F1F1100031F1C10100000005D
:1036B000202020E0F000000000000000000000FFDB
:1036C000FF000000000000001010101F1F1010105D
:1036D000000000000000000000000000000004FCEA
:1036E000FC0804FCFC0804FCFC00101F1F10001F59
:1036F0001F10001F1F10000000000000000000004D
:1037000000000004FCFC08080404FCF800000010A1
:103710001F1F100000101F1F1000000000000000FD
:1037200000000000000000E0F0180C04040C18F089
:10373000E00000030F0C101010100C0F030000002D
:10374000000000000000000000000004FCFC080471
:1037500004040CF8F0000080FFFF889010101C0F8C
:10376000030000000000000000000000000000E076
:10377000F81C04040408F8FC000000030F181010E3
:103780009088FFFF800000000000000000000000A3
:103790000000040404FCFC100804040C0C001010CD
:1037A000101F1F101010000000000000000000009B
:1037B00000000000000000003078CCC48484840C39
:1037C0001C0000001E1810101011190F0600000038
:1037D000000000C000000000000000040404FFFF1F
:1037E000040404000000000000000F1F1010100C63
:1037F00000000000000000000000000000000004C5
:10380000FCFE00000004FCFE000000000F1F18106A
:1038100010081F0F0800000000000000000000005A
:10382000000000040C3CFCC40000C43C0C0400007C
:103830000000010F1E0E010000000000000000004B
:10384000000000000000043CFCC400E47CFC848018
:103850007C040000071F070000071F07000000008E
:10386000000000000000000000000004041C7CE4D4
:10387000C0341C0404000010101C1601131F1C1877
:103880001000000000000000000000000000000424
:103890000C3CFCC400C43C0404000000C080C137E0
:1038A0000E01000000000000000000000000000009
:1038B000000000001C0404C4F47C1C040000000090
:1038C000101C1F17111010180E000000000000003F
:1038D00000F80C04000000000000001028EF0000B9
:1038E0000000000000000000003F604000000000F9
:1038F00000000000FF0000000000000000000000C9
:10390000FF0000000000000000000000FF000000B9
:1039100000000000040CF80000000000000000009F
:103920000000EF28100000000000000040603F0091
:103930000000000000000018060202040810202009
:10394000300800000000000000000000000000003F
:10395000000000000000000000000000F010101047
:1039600010FF10101010F000000000000F040404FD
:1039700004FF040404040F0000004040405F55555C
:1039800055755555555F404040000040200F09498E
:1039900089790909090F2040000000FE02424ACA45
:1039A0004A4ACA4A4A4202FE000000FF40504C43C5
:1039B00040404F50505C40FF00000000F88888886D
:1039C00088FF88888888F800000000001F08080821
:1039D000087F888888889F80F00080828282828227
:1039E00082E2A2928A86828080000000000000406D
:1039F000807F0000000000000000101010FF1090F9
:103A000008888888FF88888808000444827F0180AD
:103A10008040432C1028468180000010101010D0E8
:103A200030FF30D0121C10100000100804020100FA
:103A300000FF000001020408100004040484E43CB8
:103A40002724242424E40404040004020100FF09C0
:103A500009090949897F0000000000FE225A8600FA
:103A6000FE9292929292FE00000000FF040807006E
:103A7000FF4020030C142241400000804020180623
:103A800080000718204080000000010020702826D8
:103A9000212020243860000101000010129292922F
:103AA000929292121202FE0000000000003F1010DD
:103AB00010103F0040807F000000000000C08080A8
:103AC0008080808080FC84808080808080C0C00076
:103AD0000000000000FF7F404040404040FF404069
:103AE0004040404040FF7F00000000000000000018
:103AF00000000000007F70000000000000000000D7
:103B000000000000000000000000000000000000B5
:103B100000FCF800000000000000000000000000B1
:103B2000000000000000FFFE020202020202020288
:103B300002FFFF020202020202020202FF03000071
:103B40000000000000001F1F040404040404040417
:103B500004FFFF0404040404040404041F00000020
:103B60000000000000000000000000000000000055
:103B7000007F3F0000000000000000000000000087
:103B80000000000000000000000000000000000035
:103B9000000000000000000000000000000000F82D
:103BA000F8F0F070200000000000000000000000AD
:103BB0000000000000000000000000000000000005
:103BC0000000000000000000000080000000000075
:103BD000000000000000000000000000000000FFE6
:103BE000FFFFFF00000000000000000000000000D8
:103BF00000000000000080800000000000000000C5
:103C00000000000000000000000000FFFFFE0606AC
:103C1000060606060606060606060606060606FF4B
:103C2000FFFFFF0606060606060606060606060649
:103C30000606060606FFFFFFFF0702000000000061
:103C40000000000000000000000000FFFFFF000077
:103C5000000000000000000000000000000000FF65
:103C6000FFFFFF0000000000000000000000000057
:103C70000000000000FFFFFFFF0000000000000048
:103C80000000000000000000000000FFFFFF181807
:103C9000181818181818181818181818181818FFBD
:103CA000FFFFFF18181818181818181818181818DF
:103CB0001818181818FFFFFFFF0000000000000090
:103CC00000000000000000000000020101000000F0
:103CD000000000000000000000000000000000FFE5
:103CE000FFFFFF00000000000000000000000000D7
:103CF00000000000000101000000000000000000C2
:103D000000000000000000000000000000000000B3
:103D1000000000000000000000000000000000FFA4
:103D2000FFFFFF0000000000000000000000000096
:103D30000000000000000000000000000000000083
:103D40000000000000000000000000000000000073
:103D50000000000000000000000000000000001F44
:103D60001F0F0F0000000000000000000000000016
:103D70000000000000000000000000000000000043
:103D800000000000A43D0008000000203C000000EE
:103D9000C4010008E03D00083C000020E40A0000E7
:103DA000E00100080000000000000000000000002A
:103DB0000000000000000000000000000000000003
:103DC00000000000000000000000000000000000F3
:103DD00000000102030401020304060708090000B1
:040000050800018965
:00000001FF
